S02700004F6E2D64656D616E642054726166666963206C6967687420636F6E74726F6C2E7372656372
S11300000C942A000C94A8000C9447000C9447000C
S11300100C9447000C9447000C9447000C94470040
S11300200C9447000C9447000C9447000C94470030
S11300300C9447000C9447000C9447000C94470020
S11300400C9447000C9447000C9447000C94470010
S11300500C94470011241FBECFE5D8E0DEBFCDBF0E
S113006010E0A0E6B0E0EEEEF6E002C005900D92DE
S1130070AC36B107D9F720E0ACE6B0E001C01D9280
S1130080AE36B207E1F70E94F1010C9475030C94AB
S1130090000080916D00813091F42FE382E49FE0B1
S11300A0215080409040E1F700C0000086E690E0D7
S11300B00E949B0184E690E00E949B0128C08AE68E
S11300C090E00E949B0180E690E00E949B0145E045
S11300D062E670E088E690E00E94AF0184E690E07A
S11300E00E94870186E690E00E9487012FE382E464
S11300F09FE0215080409040E1F700C0000084E67A
S113010090E00E949B0186E690E00E949B0145E0FE
S113011062E670E088E690E00E94AF0180E690E03D
S11301200E9487018AE690E00E9487012FE382E41F
S11301309FE0215080409040E1F700C0000080E63D
S113014090E00E949B018AE690E00E949B01089542
S11301501F920F920FB60F9211242F933F934F9338
S11301605F936F937F938F939F93AF93BF93EF931B
S1130170FF938BB78F7B8BBF0E9449008BB7806442
S11301808BBF81E080936C00FF91EF91BF91AF91A1
S11301909F918F917F916F915F914F913F912F919B
S11301A00F900FBE0F901F901895AB01FC01618159
S11301B080810E94F402811181E00895CF93DF933E
S11301C000D000D01F92CDB7DEB781E48C8385E0E8
S11301D08D831982BE016D5F7F4FCE0104960E940C
S11301E0D5008A838AE08D8381E08983BE016D5FB7
S11301F07F4FCE0104960E94D5008A830F900F9002
S11302000F900F900F90DF91CF910895CF93DF93CC
S11302101F92CDB7DEB7FC012181283010F490E0A5
S113022001C091E019828081823401F118F4813493
S113023039F05EC0833481F1843409F443C058C07A
S11302408AB341E050E0BA01022E02C0660F771F64
S11302500A94E2F7482F50E046235723BA0102C01C
S1130260759567952A95E2F7698343C087B341E0A2
S113027050E0BA01022E02C0660F771F0A94E2F71B
S1130280482F50E046235723BA0102C0759567955D
S11302902A95E2F769832DC084B341E050E0BA01A6
S11302A0022E02C0660F771F0A94E2F7482F50E02F
S11302B046235723BA0102C0759567952A95E2F73C
S11302C0698317C081B341E050E0BA01022E02C035
S11302D0660F771F0A94E2F7482F50E0462357230E
S11302E0BA0102C0759567952A95E2F7698301C042
S11302F091E0911105C08981811104C082E003C09D
S1130300892F01C0892F0F90DF91CF9108950F930A
S11303101F93CF938C010E940601C82F811106C040
S113032041E0F801618180810E94F4018C2FCF911A
S11303301F910F9108950F931F93CF938C010E94E7
S11303400601C82F811106C040E0F8016181808157
S11303500E94F4018C2FCF911F910F910895EF9279
S1130360FF920F931F93CF93DF93EC018B01E42E45
S11303700E94060181112EC0C8010E94060181114C
S113038029C0F12C13C0698188810E94A002F80160
S1130390618180810E94A002FFE926E881E0F1509A
S11303A020408040E1F700C00000F3942F2D30E09E
S11303B08E2D90E0880F991F2817390724F340E009
S11303C0698188810E94F40140E0F80161818081A3
S11303D00E94F401DF91CF911F910F91FF90EF9054
S11303E008950E94DE00FFCFCF93DF9300D0CDB7F6
S11303F0DEB789836A838A81883008F091C08A8154
S11304008981823461F118F4813441F08BC08334E2
S113041009F446C0843409F463C084C041110FC098
S11304202A8181E090E002C0880F991F2A95E2F7A3
S1130430809590959BB389238BBB80E07CC0413031
S113044009F072C02A8181E090E002C0880F991FF0
S11304502A95E2F79BB3892B8BBB80E06CC04111DA
S11304600FC02A8181E090E002C0880F991F2A956D
S1130470E2F78095909598B3892388BB80E05BC0B0
S1130480413009F053C02A8181E090E002C0880F16
S1130490991F2A95E2F798B3892B88BB80E04BC05B
S11304A041110FC02A8181E090E002C0880F991F9A
S11304B02A95E2F78095909595B3892385BB80E0D2
S11304C03AC04130A9F52A8181E090E002C0880F4A
S11304D0991F2A95E2F795B3892B85BB80E02BC041
S11304E041110FC02A8181E090E002C0880F991F5A
S11304F02A95E2F78095909592B3892382BB80E098
S11305001AC04130B9F42A8181E090E002C0880F1A
S1130510991F2A95E2F792B3892B82BB80E00BC026
S113052082E009C081E007C084E005C084E003C024
S113053084E001C084E00F900F90DF91CF91089583
S1130540CF93DF9300D0CDB7DEB789836A838A81E6
S1130550883008F041C08A8189818234B1F018F46E
S1130560813431F03BC08334E9F0843441F136C046
S11305702A8181E090E002C0880F991F2A95E2F752
S11305809BB389278BBB80E02AC02A8181E090E05D
S113059002C0880F991F2A95E2F798B3892788BB70
S11305A080E01DC02A8181E090E002C0880F991F7D
S11305B02A95E2F795B3892785BB80E010C02A818C
S11305C081E090E002C0880F991F2A95E2F792B368
S11305D0892782BB80E003C082E001C081E00F90E4
S11305E00F90DF91CF910895CF93DF9300D0CDB7D3
S11305F0DEB789836A838A81883008F06EC08A8175
S11306008981823411F118F4813439F068C083345B
S1130610A1F1843409F449C062C069B32A8181E03C
S113062090E0FC0102C0EE0FFF1F2A95E2F7862F2F
S113063090E08E239F232A8102C0959587952A9561
S1130640E2F7FA01808380E04BC066B32A8181E03F
S113065090E0FC0102C0EE0FFF1F2A95E2F7862FFF
S113066090E08E239F232A8102C0959587952A9531
S1130670E2F7FA01808380E033C063B32A8181E02A
S113068090E0FC0102C0EE0FFF1F2A95E2F7862FCF
S113069090E08E239F232A8102C0959587952A9501
S11306A0E2F7FA01808380E01BC060B32A8181E015
S11306B090E0FC0102C0EE0FFF1F2A95E2F7862F9F
S11306C090E08E239F232A8102C0959587952A95D1
S11306D0E2F7FA01808380E003C082E001C081E098
S11106E00F900F90DF91CF910895F894FFCF03
S10F06EE42054204420341074106410555
S9030000FC
