:100000000C942A000C9413010C9447000C944700A4
:100010000C9447000C9447000C9447000C94470044
:100020000C9447000C9447000C9447000C94470034
:100030000C9447000C9447000C9447000C94470024
:100040000C9447000C9447000C9447000C94470014
:100050000C94470011241FBECFE5D8E0DEBFCDBF12
:1000600010E0A0E6B0E0E6E2F9E002C005900D92F3
:10007000AC36B107D9F720E0ACE6B0E001C01D9284
:10008000AE36B207E1F70E94D6020C9491040C94AC
:100090000000CF93DF9300D0CDB7DEB784E489832F
:1000A00082E08A83CE0101960E943A018AE690E0BE
:1000B0000E94430188E690E00E94430186E690E0BA
:1000C0000E94430184E690E00E94430182E690E0B2
:1000D0000E94430180E690E00E9443018FB7806850
:1000E0008FBF82E00E9487048BB780648BBF0F9024
:1000F0000F90DF91CF91089580916C00811107C01E
:1001000045E060E670E08AE690E00E947902109295
:100110006C0080E690E00E94CD0165E088E690E00A
:100120000E94F50180E690E00E94E10180916C0060
:10013000811119C081E080936D0045E064E670E0B4
:1001400086E690E00E94790210926D0080916C002A
:10015000811109C080E690E00E94CD0165E088E64B
:1001600090E00E94F501089580916D00813091F436
:100170002FE382E49FE0215080409040E1F700C0EF
:10018000000086E690E00E94E10184E690E00E9493
:10019000E10128C08AE690E00E94E10180E690E05B
:1001A0000E94E10145E062E670E088E690E00E948E
:1001B000320284E690E00E94CD0186E690E00E9443
:1001C000CD012FE382E49FE0215080409040E1F791
:1001D00000C0000084E690E00E94E10186E690E025
:1001E0000E94E10145E062E670E088E690E00E944E
:1001F000320280E690E00E94CD018AE690E00E9403
:10020000CD012FE382E49FE0215080409040E1F750
:1002100000C0000080E690E00E94E1018AE690E0E4
:100220000E94E10108951F920F920FB60F921124C0
:100230002F933F934F935F936F937F938F939F93EE
:10024000AF93BF93EF93FF930E94B40081E080933C
:100250006C00FF91EF91BF91AF919F918F917F9132
:100260006F915F914F913F912F910F900FBE0F9023
:100270001F901895FC01618140E080810E94DB02A3
:10028000811181E00895FC01618141E080810E943B
:10029000DB02811181E00895CF93DF931F92CDB7E8
:1002A000DEB7FC012181283010F490E001C091E01C
:1002B00019828081823401F118F4813439F05EC0F2
:1002C000833481F1843409F443C058C08AB341E0D7
:1002D00050E0BA01022E02C0660F771F0A94E2F7BF
:1002E000482F50E046235723BA0102C07595679501
:1002F0002A95E2F7698343C087B341E050E0BA0131
:10030000022E02C0660F771F0A94E2F7482F50E0D2
:1003100046235723BA0102C0759567952A95E2F7DF
:1003200069832DC084B341E050E0BA01022E02C0BF
:10033000660F771F0A94E2F7482F50E046235723B1
:10034000BA0102C0759567952A95E2F7698317C0CF
:1003500081B341E050E0BA01022E02C0660F771F60
:100360000A94E2F7482F50E046235723BA0102C00F
:10037000759567952A95E2F7698301C091E091111F
:1003800005C08981811104C082E003C0892F01C0AA
:10039000892F0F90DF91CF9108950F931F93CF93E3
:1003A0008C010E944C01C82F811106C041E0F80168
:1003B000618180810E9487038C2FCF911F910F91C3
:1003C00008950F931F93CF938C010E944C01C82F67
:1003D000811106C040E0F801618180810E9487039D
:1003E0008C2FCF911F910F910895FF920F931F9320
:1003F000CF93DF938C01D62F0E944C01F82E8111F0
:100400002AC0C0E017C080916C00813039F440E010
:10041000F801618180810E9487031DC0F80161811C
:1004200080810E94330483E294EF0197F1F700C0CA
:100430000000CF5F2C2F30E08D2F90E0880F991FA8
:10044000880F991F28173907F4F240E0F8016181FD
:1004500080810E9487038F2DDF91CF911F910F9193
:10046000FF900895DF92EF92FF920F931F93CF9327
:10047000DF93EC018B01D42E0E944C01811131C01D
:10048000C8010E944C01E82E81112BC0F12C13C031
:10049000698188810E943304F801618180810E9412
:1004A0003304FFE926E881E0F15020408040E1F785
:1004B00000C00000F3944F2D50E02D2D30E0220FAE
:1004C000331F4217530724F340E0698188810E945B
:1004D000870340E0F801618180810E9487038E2DAF
:1004E00000C0DF91CF911F910F91FF90EF90DF90AF
:1004F0000895EF92FF920F931F93CF93DF93EC0138
:100500008B01E42E0E944C01811149C0C8010E9458
:100510004C01F82E811143C041E0698188810E941D
:10052000870341E0F801618180810E94870340E0F8
:1005300017C080916C00813061F440E0698188814E
:100540000E94870340E0F801618180810E94870357
:1005500026C087EA91E60197F1F700C000004F5FDF
:10056000842F90E02E2D30E0B901660F771F220F07
:10057000331F220F331F220F331F260F371F8217FF
:100580009307BCF240E0698188810E94870340E0C4
:10059000F801618180810E9487038F2D00C0DF9167
:1005A000CF911F910F91FF90EF9008950E94490005
:1005B0000E947C00FDCFCF93DF9300D0CDB7DEB794
:1005C00089836A838A81883008F091C08A81898111
:1005D000823461F118F4813441F08BC0833409F422
:1005E00046C0843409F463C084C041110FC02A811D
:1005F00081E090E002C0880F991F2A95E2F780956C
:1006000090959AB389238ABB80E07CC0413009F081
:1006100072C02A8181E090E002C0880F991F2A955C
:10062000E2F79AB3892B8ABB80E06CC041110FC0FE
:100630002A8181E090E002C0880F991F2A95E2F795
:100640008095909597B3892387BB80E05BC041304C
:1006500009F053C02A8181E090E002C0880F991F01
:100660002A95E2F797B3892B87BB80E04BC04111F5
:100670000FC02A8181E090E002C0880F991F2A955F
:10068000E2F78095909594B3892384BB80E03AC0CB
:100690004130A9F52A8181E090E002C0880F991FBE
:1006A0002A95E2F794B3892B84BB80E02BC04111DB
:1006B0000FC02A8181E090E002C0880F991F2A951F
:1006C000E2F78095909591B3892381BB80E01AC0B1
:1006D0004130B9F42A8181E090E002C0880F991F6F
:1006E0002A95E2F791B3892B81BB80E00BC082E0B1
:1006F00009C081E007C083E005C083E003C083E058
:1007000001C083E00F900F90DF91CF910895CF93B8
:10071000DF9300D0CDB7DEB789836A838A818830C2
:1007200008F091C08A818981823461F118F48134A2
:1007300041F08BC0833409F446C0843409F463C0AB
:1007400084C041110FC02A8181E090E002C0880F6F
:10075000991F2A95E2F7809590959BB389238BBBCF
:1007600080E07CC0413009F072C02A8181E090E0D5
:1007700002C0880F991F2A95E2F79BB3892B8BBB88
:1007800080E06CC041110FC02A8181E090E002C07E
:10079000880F991F2A95E2F78095909598B3892341
:1007A00088BB80E05BC0413009F053C02A8181E002
:1007B00090E002C0880F991F2A95E2F798B3892B21
:1007C00088BB80E04BC041110FC02A8181E090E0DE
:1007D00002C0880F991F2A95E2F78095909595B3EE
:1007E000892385BB80E03AC04130A9F52A8181E0A8
:1007F00090E002C0880F991F2A95E2F795B3892BE4
:1008000085BB80E02BC041110FC02A8181E090E0C0
:1008100002C0880F991F2A95E2F78095909592B3B0
:10082000892382BB80E01AC04130B9F42A8181E07B
:1008300090E002C0880F991F2A95E2F792B3892BA6
:1008400082BB80E00BC082E009C081E007C084E089
:1008500005C084E003C084E001C084E00F900F90E5
:10086000DF91CF910895CF93DF9300D0CDB7DEB75E
:1008700089836A838A81883008F041C08A818981AE
:100880008234B1F018F4813431F03BC08334E9F0A4
:10089000843441F136C02A8181E090E002C0880FA3
:1008A000991F2A95E2F79BB389278BBB80E02AC06A
:1008B0002A8181E090E002C0880F991F2A95E2F713
:1008C00098B3892788BB80E01DC02A8181E090E031
:1008D00002C0880F991F2A95E2F795B3892785BB37
:1008E00080E010C02A8181E090E002C0880F991F4B
:1008F0002A95E2F792B3892782BB80E003C082E0A9
:1009000001C081E00F900F90DF91CF910895843066
:1009100030F495B79C7F892B85BF80E0089581E0F6
:060920000895F894FFCFDA
:0C0926004205420442034107410641051E
:00000001FF
